{
  "contractName": "Payment",
  "abi": [
    {
      "anonymous": false,
      "inputs": [
        {
          "indexed": false,
          "internalType": "bool",
          "name": "status",
          "type": "bool"
        }
      ],
      "name": "TxnStatus",
      "type": "event"
    },
    {
      "inputs": [
        {
          "internalType": "uint256",
          "name": "",
          "type": "uint256"
        },
        {
          "internalType": "uint256",
          "name": "",
          "type": "uint256"
        }
      ],
      "name": "jointAccount",
      "outputs": [
        {
          "internalType": "uint256",
          "name": "",
          "type": "uint256"
        }
      ],
      "stateMutability": "view",
      "type": "function",
      "constant": true
    },
    {
      "inputs": [
        {
          "internalType": "uint256",
          "name": "",
          "type": "uint256"
        }
      ],
      "name": "keys_list",
      "outputs": [
        {
          "internalType": "uint256",
          "name": "",
          "type": "uint256"
        }
      ],
      "stateMutability": "view",
      "type": "function",
      "constant": true
    },
    {
      "inputs": [
        {
          "internalType": "uint256",
          "name": "",
          "type": "uint256"
        }
      ],
      "name": "parent",
      "outputs": [
        {
          "internalType": "uint256",
          "name": "",
          "type": "uint256"
        }
      ],
      "stateMutability": "view",
      "type": "function",
      "constant": true
    },
    {
      "inputs": [
        {
          "internalType": "uint256",
          "name": "",
          "type": "uint256"
        }
      ],
      "name": "user_list",
      "outputs": [
        {
          "internalType": "uint256",
          "name": "id",
          "type": "uint256"
        },
        {
          "internalType": "string",
          "name": "name",
          "type": "string"
        }
      ],
      "stateMutability": "view",
      "type": "function",
      "constant": true
    },
    {
      "inputs": [
        {
          "internalType": "uint256",
          "name": "",
          "type": "uint256"
        }
      ],
      "name": "visited",
      "outputs": [
        {
          "internalType": "bool",
          "name": "",
          "type": "bool"
        }
      ],
      "stateMutability": "view",
      "type": "function",
      "constant": true
    },
    {
      "inputs": [
        {
          "internalType": "uint256",
          "name": "userId",
          "type": "uint256"
        },
        {
          "internalType": "string",
          "name": "name",
          "type": "string"
        }
      ],
      "name": "registerUser",
      "outputs": [],
      "stateMutability": "nonpayable",
      "type": "function"
    },
    {
      "inputs": [
        {
          "internalType": "uint256",
          "name": "userId1",
          "type": "uint256"
        },
        {
          "internalType": "uint256",
          "name": "userId2",
          "type": "uint256"
        },
        {
          "internalType": "uint256",
          "name": "amount",
          "type": "uint256"
        }
      ],
      "name": "createAcc",
      "outputs": [],
      "stateMutability": "nonpayable",
      "type": "function"
    },
    {
      "inputs": [
        {
          "internalType": "uint256",
          "name": "userId1",
          "type": "uint256"
        },
        {
          "internalType": "uint256",
          "name": "userId2",
          "type": "uint256"
        }
      ],
      "name": "sendAmount",
      "outputs": [],
      "stateMutability": "nonpayable",
      "type": "function"
    },
    {
      "inputs": [
        {
          "internalType": "uint256",
          "name": "userId1",
          "type": "uint256"
        },
        {
          "internalType": "uint256",
          "name": "userId2",
          "type": "uint256"
        }
      ],
      "name": "closeAccount",
      "outputs": [],
      "stateMutability": "nonpayable",
      "type": "function"
    }
  ],
  "bytecode": "0x60806040526000805534801561001457600080fd5b506115a4806100246000396000f3fe608060405234801561001057600080fd5b50600436106100935760003560e01c8063713a5d0311610066578063713a5d0314610130578063b0ce739d14610160578063b548348114610191578063bd45d6eb146101ad578063f28eb0dc146101c957610093565b80631c57333e14610098578063370fa968146100b45780634eaa9d22146100e45780635db9506e14610114575b600080fd5b6100b260048036038101906100ad9190610d47565b6101f9565b005b6100ce60048036038101906100c99190610da3565b6102ce565b6040516100db9190610deb565b60405180910390f35b6100fe60048036038101906100f99190610da3565b6102ee565b60405161010b9190610e15565b60405180910390f35b61012e60048036038101906101299190610e30565b610306565b005b61014a60048036038101906101459190610e30565b61083c565b6040516101579190610e15565b60405180910390f35b61017a60048036038101906101759190610da3565b610861565b604051610188929190610eef565b60405180910390f35b6101ab60048036038101906101a69190610f1f565b61090d565b005b6101c760048036038101906101c29190610e30565b610a95565b005b6101e360048036038101906101de9190610da3565b610b9f565b6040516101f09190610e15565b60405180910390f35b6000600460008481526020019081526020016000206000015414610252576040517f08c379a000000000000000000000000000000000000000000000000000000000815260040161024990610fbe565b60405180910390fd5b6040518060400160405280838152602001828152506004600084815260200190815260200160002060008201518160000155602082015181600101908161029991906111ea565b5090505081600360008060008154809291906102b4906112eb565b919050558152602001908152602001600020819055505050565b60016020528060005260406000206000915054906101000a900460ff1681565b60026020528060005260406000206000915090505481565b600060046000848152602001908152602001600020600001540361035f576040517f08c379a00000000000000000000000000000000000000000000000000000000081526004016103569061137f565b60405180910390fd5b60006004600083815260200190815260200160002060000154036103b8576040517f08c379a00000000000000000000000000000000000000000000000000000000081526004016103af906113eb565b60405180910390fd5b60005b600054811015610443576000600160006003600085815260200190815260200160002054815260200190815260200160002060006101000a81548160ff0219169083151502179055506000600260006003600085815260200190815260200160002054815260200190815260200160002081905550808061043b906112eb565b9150506103bb565b506000805467ffffffffffffffff81111561046157610460610c1c565b5b60405190808252806020026020018201604052801561048f5781602001602082028036833780820191505090505b50905082816000815181106104a7576104a661140b565b5b602002602001018181525050600180600085815260200190815260200160002060006101000a81548160ff021916908315150217905550600060026000858152602001908152602001600020819055506000806000600190505b8082101561068b57600084838151811061051e5761051d61140b565b5b602002602001015190508280610533906112eb565b93505060005b600054811015610678576000600360008381526020019081526020016000205490506001600082815260200190815260200160002060009054906101000a900460ff161580156105dc5750600060056000838152602001908152602001600020600085815260200190815260200160002054600560008681526020019081526020016000206000848152602001908152602001600020546105da919061143a565b115b1561066457600180600083815260200190815260200160002060006101000a81548160ff021916908315150217905550826002600083815260200190815260200160002081905550808785815181106106385761063761140b565b5b602002602001018181525050838061064f906112eb565b945050878103610663576001955050610678565b5b508080610670906112eb565b915050610539565b508315610685575061068b565b50610501565b6060935060006002600087815260200190815260200160002054905060008690505b878114610742576001600560008481526020019081526020016000206000838152602001908152602001600020541015610724577f9ea7455f956dfe3afd0438f1e9ce863cd6e1241ddfb396c567048096fbe9e9a060006040516107119190610deb565b60405180910390a1505050505050610838565b819050600260008281526020019081526020016000205491506106ad565b600260008881526020019081526020016000205491508690505b8781146107f95760016005600084815260200190815260200160002060008381526020019081526020016000206000828254610798919061146e565b92505081905550600160056000838152602001908152602001600020600084815260200190815260200160002060008282546107d4919061143a565b925050819055508190506002600082815260200190815260200160002054915061075c565b7f9ea7455f956dfe3afd0438f1e9ce863cd6e1241ddfb396c567048096fbe9e9a060016040516108299190610deb565b60405180910390a15050505050505b5050565b6005602052816000526040600020602052806000526040600020600091509150505481565b600460205280600052604060002060009150905080600001549080600101805461088a9061100d565b80601f01602080910402602001604051908101604052809291908181526020018280546108b69061100d565b80156109035780601f106108d857610100808354040283529160200191610903565b820191906000526020600020905b8154815290600101906020018083116108e657829003601f168201915b5050505050905082565b6000600460008581526020019081526020016000206000015403610966576040517f08c379a000000000000000000000000000000000000000000000000000000000815260040161095d9061137f565b60405180910390fd5b60006004600084815260200190815260200160002060000154036109bf576040517f08c379a00000000000000000000000000000000000000000000000000000000081526004016109b6906113eb565b60405180910390fd5b60006005600085815260200190815260200160002060008481526020019081526020016000205414610a26576040517f08c379a0000000000000000000000000000000000000000000000000000000008152600401610a1d906114ee565b60405180910390fd5b600281610a33919061153d565b60056000858152602001908152602001600020600084815260200190815260200160002081905550600281610a68919061153d565b60056000848152602001908152602001600020600085815260200190815260200160002081905550505050565b6000600460008481526020019081526020016000206000015403610aee576040517f08c379a0000000000000000000000000000000000000000000000000000000008152600401610ae59061137f565b60405180910390fd5b6000600460008381526020019081526020016000206000015403610b47576040517f08c379a0000000000000000000000000000000000000000000000000000000008152600401610b3e906113eb565b60405180910390fd5b6000600560008481526020019081526020016000206000838152602001908152602001600020819055506000600560008381526020019081526020016000206000848152602001908152602001600020819055505050565b60036020528060005260406000206000915090505481565b6000604051905090565b600080fd5b600080fd5b6000819050919050565b610bde81610bcb565b8114610be957600080fd5b50565b600081359050610bfb81610bd5565b92915050565b600080fd5b600080fd5b6000601f19601f8301169050919050565b7f4e487b7100000000000000000000000000000000000000000000000000000000600052604160045260246000fd5b610c5482610c0b565b810181811067ffffffffffffffff82111715610c7357610c72610c1c565b5b80604052505050565b6000610c86610bb7565b9050610c928282610c4b565b919050565b600067ffffffffffffffff821115610cb257610cb1610c1c565b5b610cbb82610c0b565b9050602081019050919050565b82818337600083830152505050565b6000610cea610ce584610c97565b610c7c565b905082815260208101848484011115610d0657610d05610c06565b5b610d11848285610cc8565b509392505050565b600082601f830112610d2e57610d2d610c01565b5b8135610d3e848260208601610cd7565b91505092915050565b60008060408385031215610d5e57610d5d610bc1565b5b6000610d6c85828601610bec565b925050602083013567ffffffffffffffff811115610d8d57610d8c610bc6565b5b610d9985828601610d19565b9150509250929050565b600060208284031215610db957610db8610bc1565b5b6000610dc784828501610bec565b91505092915050565b60008115159050919050565b610de581610dd0565b82525050565b6000602082019050610e006000830184610ddc565b92915050565b610e0f81610bcb565b82525050565b6000602082019050610e2a6000830184610e06565b92915050565b60008060408385031215610e4757610e46610bc1565b5b6000610e5585828601610bec565b9250506020610e6685828601610bec565b9150509250929050565b600081519050919050565b600082825260208201905092915050565b60005b83811015610eaa578082015181840152602081019050610e8f565b60008484015250505050565b6000610ec182610e70565b610ecb8185610e7b565b9350610edb818560208601610e8c565b610ee481610c0b565b840191505092915050565b6000604082019050610f046000830185610e06565b8181036020830152610f168184610eb6565b90509392505050565b600080600060608486031215610f3857610f37610bc1565b5b6000610f4686828701610bec565b9350506020610f5786828701610bec565b9250506040610f6886828701610bec565b9150509250925092565b7f4572726f72202d205573657220616c7265616479206578697374730000000000600082015250565b6000610fa8601b83610e7b565b9150610fb382610f72565b602082019050919050565b60006020820190508181036000830152610fd781610f9b565b9050919050565b7f4e487b7100000000000000000000000000000000000000000000000000000000600052602260045260246000fd5b6000600282049050600182168061102557607f821691505b60208210810361103857611037610fde565b5b50919050565b60008190508160005260206000209050919050565b60006020601f8301049050919050565b600082821b905092915050565b6000600883026110a07fffffffffffffffffffffffffffffffffffffffffffffffffffffffffffffffff82611063565b6110aa8683611063565b95508019841693508086168417925050509392505050565b6000819050919050565b60006110e76110e26110dd84610bcb565b6110c2565b610bcb565b9050919050565b6000819050919050565b611101836110cc565b61111561110d826110ee565b848454611070565b825550505050565b600090565b61112a61111d565b6111358184846110f8565b505050565b5b818110156111595761114e600082611122565b60018101905061113b565b5050565b601f82111561119e5761116f8161103e565b61117884611053565b81016020851015611187578190505b61119b61119385611053565b83018261113a565b50505b505050565b600082821c905092915050565b60006111c1600019846008026111a3565b1980831691505092915050565b60006111da83836111b0565b9150826002028217905092915050565b6111f382610e70565b67ffffffffffffffff81111561120c5761120b610c1c565b5b611216825461100d565b61122182828561115d565b600060209050601f8311600181146112545760008415611242578287015190505b61124c85826111ce565b8655506112b4565b601f1984166112628661103e565b60005b8281101561128a57848901518255600182019150602085019450602081019050611265565b868310156112a757848901516112a3601f8916826111b0565b8355505b6001600288020188555050505b505050505050565b7f4e487b7100000000000000000000000000000000000000000000000000000000600052601160045260246000fd5b60006112f682610bcb565b91507fffffffffffffffffffffffffffffffffffffffffffffffffffffffffffffffff8203611328576113276112bc565b5b600182019050919050565b7f4572726f72202d2055736572203120646f6573206e6f74206578697374000000600082015250565b6000611369601d83610e7b565b915061137482611333565b602082019050919050565b600060208201905081810360008301526113988161135c565b9050919050565b7f4572726f72202d2055736572203220646f6573206e6f74206578697374000000600082015250565b60006113d5601d83610e7b565b91506113e08261139f565b602082019050919050565b60006020820190508181036000830152611404816113c8565b9050919050565b7f4e487b7100000000000000000000000000000000000000000000000000000000600052603260045260246000fd5b600061144582610bcb565b915061145083610bcb565b9250828201905080821115611468576114676112bc565b5b92915050565b600061147982610bcb565b915061148483610bcb565b925082820390508181111561149c5761149b6112bc565b5b92915050565b7f4163636f756e7420616c72656164792065786973747300000000000000000000600082015250565b60006114d8601683610e7b565b91506114e3826114a2565b602082019050919050565b60006020820190508181036000830152611507816114cb565b9050919050565b7f4e487b7100000000000000000000000000000000000000000000000000000000600052601260045260246000fd5b600061154882610bcb565b915061155383610bcb565b9250826115635761156261150e565b5b82820490509291505056fea264697066735822122035e3881fbc1578c3ce8c2772e6e0defed25134a08be4b4ad3052327023ad90a964736f6c63430008130033",
  "immutableReferences": {},
  "source": "pragma solidity ^0.8.0;\n\ncontract Payment {\n    \n    struct User {\n        uint id;\n        string name;\n    }\n    event TxnStatus(bool status);\n\n    uint num_users = 0;\n    mapping(uint => bool) public visited;\n    mapping(uint => uint) public parent;\n    mapping(uint => uint) public keys_list;\n    mapping(uint => User) public user_list;\n    mapping(uint => mapping(uint => uint)) public jointAccount;\n    //index i, j indicates balance of i in the account for i<->j\n    \n    function registerUser(uint userId, string memory name) public {\n        require(user_list[userId].id==0, \"Error - User already exists\");\n        user_list[userId] = User(userId, name);\n        keys_list[num_users++] = userId;\n    }\n    \n    function createAcc(uint userId1, uint userId2, uint amount) public {\n        require(user_list[userId1].id!=0, \"Error - User 1 does not exist\");\n        require(user_list[userId2].id!=0, \"Error - User 2 does not exist\");\n        require(jointAccount[userId1][userId2] == 0, \"Account already exists\");\n\n        jointAccount[userId1][userId2] = amount/2;\n        jointAccount[userId2][userId1] = amount/2;\n    }\n    \n    function sendAmount(uint userId1, uint userId2) public {\n        require(user_list[userId1].id!=0, \"Error - User 1 does not exist\");\n        require(user_list[userId2].id!=0, \"Error - User 2 does not exist\");\n\n        for(uint i=0;i<num_users;i++){\n            visited[keys_list[i]] = false;\n            parent[keys_list[i]] = 0;\n        }\n\n        uint[] memory queue = new uint[](num_users);\n        queue[0] = userId1;\n        visited[userId1] = true;\n        parent[userId1] = 0;\n        bool break_out = false;\n        uint head = 0;\n        uint tail = 1;\n\n        while(head<tail){\n            uint node = queue[head];\n            head++;\n\n            for (uint i = 0; i < num_users; i++) {\n                uint neighbor = keys_list[i];\n                if (!visited[neighbor] && jointAccount[node][neighbor]+jointAccount[neighbor][node]>0 ) {\n                    visited[neighbor] = true;\n                    parent[neighbor] = node;\n                    queue[tail] = neighbor;\n                    tail++;\n                    if(neighbor==userId2){\n                        break_out = true;\n                        break;\n                    }\n                }\n            }\n            if(break_out){\n                break;\n            }\n        }\n        delete queue;\n\n        uint node1 = parent[userId2];\n        uint node2 = userId2;\n\n        while(node2!=userId1){\n            if(jointAccount[node1][node2]<1){\n                emit TxnStatus(false);\n                return;   \n            }\n            node2 = node1;\n            node1 = parent[node2];\n        }\n\n        node1 = parent[userId2];\n        node2 = userId2;\n\n        while(node2!=userId1){\n            jointAccount[node1][node2] -= 1;\n            jointAccount[node2][node1] += 1;\n            node2 = node1;\n            node1 = parent[node2];\n        }\n        emit TxnStatus(true);\n\n    }\n    \n    function closeAccount(uint userId1, uint userId2) public {\n        require(user_list[userId1].id!=0, \"Error - User 1 does not exist\");\n        require(user_list[userId2].id!=0, \"Error - User 2 does not exist\");\n\n        jointAccount[userId1][userId2] = 0;\n        jointAccount[userId2][userId1] = 0;\n    }\n\n\n\n}\n",
  "sourcePath": "/home/vboxuser/Documents/CS765-Project/Assignment_3/contracts/Payment.sol",
  "compiler": {
    "name": "solc",
    "version": "0.8.19+commit.7dd6d404.Emscripten.clang"
  },
  "schemaVersion": "3.4.13",
  "updatedAt": "2023-04-12T13:22:51.810Z",
  "networkType": "ethereum",
  "devdoc": {
    "kind": "dev",
    "methods": {},
    "version": 1
  },
  "userdoc": {
    "kind": "user",
    "methods": {},
    "version": 1
  }
}