{
  "contractName": "Payment",
  "abi": [
    {
      "inputs": [
        {
          "internalType": "uint256",
          "name": "",
          "type": "uint256"
        },
        {
          "internalType": "uint256",
          "name": "",
          "type": "uint256"
        }
      ],
      "name": "jointAccount",
      "outputs": [
        {
          "internalType": "uint256",
          "name": "",
          "type": "uint256"
        }
      ],
      "stateMutability": "view",
      "type": "function",
      "constant": true
    },
    {
      "inputs": [
        {
          "internalType": "uint256",
          "name": "",
          "type": "uint256"
        }
      ],
      "name": "user_list",
      "outputs": [
        {
          "internalType": "uint256",
          "name": "id",
          "type": "uint256"
        },
        {
          "internalType": "string",
          "name": "name",
          "type": "string"
        }
      ],
      "stateMutability": "view",
      "type": "function",
      "constant": true
    },
    {
      "inputs": [
        {
          "internalType": "uint256",
          "name": "userId",
          "type": "uint256"
        },
        {
          "internalType": "string",
          "name": "name",
          "type": "string"
        }
      ],
      "name": "registerUser",
      "outputs": [],
      "stateMutability": "nonpayable",
      "type": "function"
    },
    {
      "inputs": [
        {
          "internalType": "uint256",
          "name": "userId1",
          "type": "uint256"
        },
        {
          "internalType": "uint256",
          "name": "userId2",
          "type": "uint256"
        }
      ],
      "name": "createAcc",
      "outputs": [],
      "stateMutability": "nonpayable",
      "type": "function"
    },
    {
      "inputs": [
        {
          "internalType": "uint256",
          "name": "userId1",
          "type": "uint256"
        },
        {
          "internalType": "uint256",
          "name": "userId2",
          "type": "uint256"
        },
        {
          "internalType": "uint256",
          "name": "amount",
          "type": "uint256"
        }
      ],
      "name": "sendAmount",
      "outputs": [],
      "stateMutability": "nonpayable",
      "type": "function"
    },
    {
      "inputs": [
        {
          "internalType": "uint256",
          "name": "userId1",
          "type": "uint256"
        },
        {
          "internalType": "uint256",
          "name": "userId2",
          "type": "uint256"
        }
      ],
      "name": "closeAccount",
      "outputs": [],
      "stateMutability": "nonpayable",
      "type": "function"
    }
  ],
  "bytecode": "0x608060405234801561001057600080fd5b50611081806100206000396000f3fe608060405234801561001057600080fd5b50600436106100625760003560e01c80631c57333e146100675780633f3078df14610083578063713a5d031461009f578063b0ce739d146100cf578063bcf16ee214610100578063bd45d6eb1461011c575b600080fd5b610081600480360381019061007c9190610865565b610138565b005b61009d600480360381019061009891906108c1565b6101de565b005b6100b960048036038101906100b49190610914565b610370565b6040516100c69190610963565b60405180910390f35b6100e960048036038101906100e4919061097e565b610395565b6040516100f7929190610a2a565b60405180910390f35b61011a60048036038101906101159190610914565b610441565b005b61013660048036038101906101319190610914565b6105cd565b005b60008060008481526020019081526020016000206000015414610190576040517f08c379a000000000000000000000000000000000000000000000000000000000815260040161018790610aa6565b60405180910390fd5b6040518060400160405280838152602001828152506000808481526020019081526020016000206000820151816000015560208201518160010190816101d69190610cd2565b509050505050565b60008060008581526020019081526020016000206000015403610236576040517f08c379a000000000000000000000000000000000000000000000000000000000815260040161022d90610df0565b60405180910390fd5b6000806000848152602001908152602001600020600001540361028e576040517f08c379a000000000000000000000000000000000000000000000000000000000815260040161028590610e5c565b60405180910390fd5b806001600085815260200190815260200160002060008481526020019081526020016000205410156102f5576040517f08c379a00000000000000000000000000000000000000000000000000000000081526004016102ec90610ec8565b60405180910390fd5b8060016000858152602001908152602001600020600084815260200190815260200160002060008282546103299190610f17565b925050819055508060016000848152602001908152602001600020600085815260200190815260200160002060008282546103649190610f4b565b92505081905550505050565b6001602052816000526040600020602052806000526040600020600091509150505481565b60006020528060005260406000206000915090508060000154908060010180546103be90610af5565b80601f01602080910402602001604051908101604052809291908181526020018280546103ea90610af5565b80156104375780601f1061040c57610100808354040283529160200191610437565b820191906000526020600020905b81548152906001019060200180831161041a57829003601f168201915b5050505050905082565b60008060008481526020019081526020016000206000015403610499576040517f08c379a000000000000000000000000000000000000000000000000000000000815260040161049090610df0565b60405180910390fd5b600080600083815260200190815260200160002060000154036104f1576040517f08c379a00000000000000000000000000000000000000000000000000000000081526004016104e890610e5c565b60405180910390fd5b60006001600084815260200190815260200160002060008381526020019081526020016000205414610558576040517f08c379a000000000000000000000000000000000000000000000000000000000815260040161054f90610fcb565b60405180910390fd5b6000600a905060028161056b919061101a565b600160008581526020019081526020016000206000848152602001908152602001600020819055506002816105a0919061101a565b60016000848152602001908152602001600020600085815260200190815260200160002081905550505050565b60008060008481526020019081526020016000206000015403610625576040517f08c379a000000000000000000000000000000000000000000000000000000000815260040161061c90610df0565b60405180910390fd5b6000806000838152602001908152602001600020600001540361067d576040517f08c379a000000000000000000000000000000000000000000000000000000000815260040161067490610e5c565b60405180910390fd5b6000600160008481526020019081526020016000206000838152602001908152602001600020819055506000600160008381526020019081526020016000206000848152602001908152602001600020819055505050565b6000604051905090565b600080fd5b600080fd5b6000819050919050565b6106fc816106e9565b811461070757600080fd5b50565b600081359050610719816106f3565b92915050565b600080fd5b600080fd5b6000601f19601f8301169050919050565b7f4e487b7100000000000000000000000000000000000000000000000000000000600052604160045260246000fd5b61077282610729565b810181811067ffffffffffffffff821117156107915761079061073a565b5b80604052505050565b60006107a46106d5565b90506107b08282610769565b919050565b600067ffffffffffffffff8211156107d0576107cf61073a565b5b6107d982610729565b9050602081019050919050565b82818337600083830152505050565b6000610808610803846107b5565b61079a565b90508281526020810184848401111561082457610823610724565b5b61082f8482856107e6565b509392505050565b600082601f83011261084c5761084b61071f565b5b813561085c8482602086016107f5565b91505092915050565b6000806040838503121561087c5761087b6106df565b5b600061088a8582860161070a565b925050602083013567ffffffffffffffff8111156108ab576108aa6106e4565b5b6108b785828601610837565b9150509250929050565b6000806000606084860312156108da576108d96106df565b5b60006108e88682870161070a565b93505060206108f98682870161070a565b925050604061090a8682870161070a565b9150509250925092565b6000806040838503121561092b5761092a6106df565b5b60006109398582860161070a565b925050602061094a8582860161070a565b9150509250929050565b61095d816106e9565b82525050565b60006020820190506109786000830184610954565b92915050565b600060208284031215610994576109936106df565b5b60006109a28482850161070a565b91505092915050565b600081519050919050565b600082825260208201905092915050565b60005b838110156109e55780820151818401526020810190506109ca565b60008484015250505050565b60006109fc826109ab565b610a0681856109b6565b9350610a168185602086016109c7565b610a1f81610729565b840191505092915050565b6000604082019050610a3f6000830185610954565b8181036020830152610a5181846109f1565b90509392505050565b7f5573657220616c72656164792065786973747300000000000000000000000000600082015250565b6000610a906013836109b6565b9150610a9b82610a5a565b602082019050919050565b60006020820190508181036000830152610abf81610a83565b9050919050565b7f4e487b7100000000000000000000000000000000000000000000000000000000600052602260045260246000fd5b60006002820490506001821680610b0d57607f821691505b602082108103610b2057610b1f610ac6565b5b50919050565b60008190508160005260206000209050919050565b60006020601f8301049050919050565b600082821b905092915050565b600060088302610b887fffffffffffffffffffffffffffffffffffffffffffffffffffffffffffffffff82610b4b565b610b928683610b4b565b95508019841693508086168417925050509392505050565b6000819050919050565b6000610bcf610bca610bc5846106e9565b610baa565b6106e9565b9050919050565b6000819050919050565b610be983610bb4565b610bfd610bf582610bd6565b848454610b58565b825550505050565b600090565b610c12610c05565b610c1d818484610be0565b505050565b5b81811015610c4157610c36600082610c0a565b600181019050610c23565b5050565b601f821115610c8657610c5781610b26565b610c6084610b3b565b81016020851015610c6f578190505b610c83610c7b85610b3b565b830182610c22565b50505b505050565b600082821c905092915050565b6000610ca960001984600802610c8b565b1980831691505092915050565b6000610cc28383610c98565b9150826002028217905092915050565b610cdb826109ab565b67ffffffffffffffff811115610cf457610cf361073a565b5b610cfe8254610af5565b610d09828285610c45565b600060209050601f831160018114610d3c5760008415610d2a578287015190505b610d348582610cb6565b865550610d9c565b601f198416610d4a86610b26565b60005b82811015610d7257848901518255600182019150602085019450602081019050610d4d565b86831015610d8f5784890151610d8b601f891682610c98565b8355505b6001600288020188555050505b505050505050565b7f55736572203120646f6573206e6f742065786973740000000000000000000000600082015250565b6000610dda6015836109b6565b9150610de582610da4565b602082019050919050565b60006020820190508181036000830152610e0981610dcd565b9050919050565b7f55736572203220646f6573206e6f742065786973740000000000000000000000600082015250565b6000610e466015836109b6565b9150610e5182610e10565b602082019050919050565b60006020820190508181036000830152610e7581610e39565b9050919050565b7f496e73756666696369656e742062616c616e636520666f722055736572203100600082015250565b6000610eb2601f836109b6565b9150610ebd82610e7c565b602082019050919050565b60006020820190508181036000830152610ee181610ea5565b9050919050565b7f4e487b7100000000000000000000000000000000000000000000000000000000600052601160045260246000fd5b6000610f22826106e9565b9150610f2d836106e9565b9250828203905081811115610f4557610f44610ee8565b5b92915050565b6000610f56826106e9565b9150610f61836106e9565b9250828201905080821115610f7957610f78610ee8565b5b92915050565b7f4163636f756e7420616c72656164792065786973747300000000000000000000600082015250565b6000610fb56016836109b6565b9150610fc082610f7f565b602082019050919050565b60006020820190508181036000830152610fe481610fa8565b9050919050565b7f4e487b7100000000000000000000000000000000000000000000000000000000600052601260045260246000fd5b6000611025826106e9565b9150611030836106e9565b9250826110405761103f610feb565b5b82820490509291505056fea2646970667358221220741c4bd97e4497b5f95e7d4deef26fb6128b4d91b335ec4a2f87c90504a9faa964736f6c63430008130033",
  "immutableReferences": {},
  "source": "pragma solidity ^0.8.0;\n\ncontract Payment {\n    \n    struct User {\n        uint id;\n        string name;\n    }\n    \n    mapping(uint => User) public user_list;\n    mapping(uint => mapping(uint => uint)) public jointAccount;\n    //index i, j indicates balance of i in the account for i<->j\n    \n    function registerUser(uint userId, string memory name) public {\n        require(user_list[userId].id==0, \"User already exists\");\n        user_list[userId] = User(userId, name);\n    }\n    \n    function createAcc(uint userId1, uint userId2) public {\n        require(user_list[userId1].id!=0, \"User 1 does not exist\");\n        require(user_list[userId2].id!=0, \"User 2 does not exist\");\n        require(jointAccount[userId1][userId2] == 0, \"Account already exists\");\n\n        uint balance = 10;\n        //uint balance = expRandom(10);\n        jointAccount[userId1][userId2] = balance/2;\n        jointAccount[userId2][userId1] = balance/2;\n    }\n    \n    function sendAmount(uint userId1, uint userId2, uint amount) public {\n        require(user_list[userId1].id!=0, \"User 1 does not exist\");\n        require(user_list[userId2].id!=0, \"User 2 does not exist\");\n        require(jointAccount[userId1][userId2] >= amount, \"Insufficient balance for User 1\");\n\n        jointAccount[userId1][userId2] -= amount;\n        jointAccount[userId2][userId1] += amount;\n    }\n    \n    function closeAccount(uint userId1, uint userId2) public {\n        require(user_list[userId1].id!=0, \"User 1 does not exist\");\n        require(user_list[userId2].id!=0, \"User 2 does not exist\");\n\n        jointAccount[userId1][userId2] = 0;\n        jointAccount[userId2][userId1] = 0;\n    }\n\n\n\n}\n",
  "sourcePath": "/home/vboxuser/Documents/CS765-Project/Assignment_3/contracts/Payment.sol",
  "compiler": {
    "name": "solc",
    "version": "0.8.19+commit.7dd6d404.Emscripten.clang"
  },
  "schemaVersion": "3.4.13",
  "updatedAt": "2023-04-08T08:53:15.166Z",
  "networkType": "ethereum",
  "devdoc": {
    "kind": "dev",
    "methods": {},
    "version": 1
  },
  "userdoc": {
    "kind": "user",
    "methods": {},
    "version": 1
  }
}